{
  "contractName": "VldPermit",
  "abi": [
    {
      "inputs": [],
      "stateMutability": "nonpayable",
      "type": "constructor"
    },
    {
      "anonymous": false,
      "inputs": [
        {
          "indexed": true,
          "internalType": "address",
          "name": "owner",
          "type": "address"
        },
        {
          "indexed": true,
          "internalType": "address",
          "name": "spender",
          "type": "address"
        },
        {
          "indexed": false,
          "internalType": "uint256",
          "name": "value",
          "type": "uint256"
        }
      ],
      "name": "Approval",
      "type": "event"
    },
    {
      "anonymous": false,
      "inputs": [
        {
          "indexed": true,
          "internalType": "address",
          "name": "from",
          "type": "address"
        },
        {
          "indexed": true,
          "internalType": "address",
          "name": "to",
          "type": "address"
        },
        {
          "indexed": false,
          "internalType": "uint256",
          "name": "value",
          "type": "uint256"
        }
      ],
      "name": "Transfer",
      "type": "event"
    },
    {
      "inputs": [],
      "name": "DOMAIN_SEPARATOR",
      "outputs": [
        {
          "internalType": "bytes32",
          "name": "",
          "type": "bytes32"
        }
      ],
      "stateMutability": "view",
      "type": "function",
      "constant": true
    },
    {
      "inputs": [
        {
          "internalType": "address",
          "name": "owner",
          "type": "address"
        },
        {
          "internalType": "address",
          "name": "spender",
          "type": "address"
        }
      ],
      "name": "allowance",
      "outputs": [
        {
          "internalType": "uint256",
          "name": "",
          "type": "uint256"
        }
      ],
      "stateMutability": "view",
      "type": "function",
      "constant": true
    },
    {
      "inputs": [
        {
          "internalType": "address",
          "name": "spender",
          "type": "address"
        },
        {
          "internalType": "uint256",
          "name": "amount",
          "type": "uint256"
        }
      ],
      "name": "approve",
      "outputs": [
        {
          "internalType": "bool",
          "name": "",
          "type": "bool"
        }
      ],
      "stateMutability": "nonpayable",
      "type": "function"
    },
    {
      "inputs": [
        {
          "internalType": "address",
          "name": "account",
          "type": "address"
        }
      ],
      "name": "balanceOf",
      "outputs": [
        {
          "internalType": "uint256",
          "name": "",
          "type": "uint256"
        }
      ],
      "stateMutability": "view",
      "type": "function",
      "constant": true
    },
    {
      "inputs": [],
      "name": "decimals",
      "outputs": [
        {
          "internalType": "uint8",
          "name": "",
          "type": "uint8"
        }
      ],
      "stateMutability": "view",
      "type": "function",
      "constant": true
    },
    {
      "inputs": [
        {
          "internalType": "address",
          "name": "spender",
          "type": "address"
        },
        {
          "internalType": "uint256",
          "name": "subtractedValue",
          "type": "uint256"
        }
      ],
      "name": "decreaseAllowance",
      "outputs": [
        {
          "internalType": "bool",
          "name": "",
          "type": "bool"
        }
      ],
      "stateMutability": "nonpayable",
      "type": "function"
    },
    {
      "inputs": [
        {
          "internalType": "address",
          "name": "spender",
          "type": "address"
        },
        {
          "internalType": "uint256",
          "name": "addedValue",
          "type": "uint256"
        }
      ],
      "name": "increaseAllowance",
      "outputs": [
        {
          "internalType": "bool",
          "name": "",
          "type": "bool"
        }
      ],
      "stateMutability": "nonpayable",
      "type": "function"
    },
    {
      "inputs": [],
      "name": "name",
      "outputs": [
        {
          "internalType": "string",
          "name": "",
          "type": "string"
        }
      ],
      "stateMutability": "view",
      "type": "function",
      "constant": true
    },
    {
      "inputs": [
        {
          "internalType": "address",
          "name": "owner",
          "type": "address"
        }
      ],
      "name": "nonces",
      "outputs": [
        {
          "internalType": "uint256",
          "name": "",
          "type": "uint256"
        }
      ],
      "stateMutability": "view",
      "type": "function",
      "constant": true
    },
    {
      "inputs": [
        {
          "internalType": "address",
          "name": "owner",
          "type": "address"
        },
        {
          "internalType": "address",
          "name": "spender",
          "type": "address"
        },
        {
          "internalType": "uint256",
          "name": "value",
          "type": "uint256"
        },
        {
          "internalType": "uint256",
          "name": "deadline",
          "type": "uint256"
        },
        {
          "internalType": "uint8",
          "name": "v",
          "type": "uint8"
        },
        {
          "internalType": "bytes32",
          "name": "r",
          "type": "bytes32"
        },
        {
          "internalType": "bytes32",
          "name": "s",
          "type": "bytes32"
        }
      ],
      "name": "permit",
      "outputs": [],
      "stateMutability": "nonpayable",
      "type": "function"
    },
    {
      "inputs": [],
      "name": "symbol",
      "outputs": [
        {
          "internalType": "string",
          "name": "",
          "type": "string"
        }
      ],
      "stateMutability": "view",
      "type": "function",
      "constant": true
    },
    {
      "inputs": [],
      "name": "totalSupply",
      "outputs": [
        {
          "internalType": "uint256",
          "name": "",
          "type": "uint256"
        }
      ],
      "stateMutability": "view",
      "type": "function",
      "constant": true
    },
    {
      "inputs": [
        {
          "internalType": "address",
          "name": "to",
          "type": "address"
        },
        {
          "internalType": "uint256",
          "name": "amount",
          "type": "uint256"
        }
      ],
      "name": "transfer",
      "outputs": [
        {
          "internalType": "bool",
          "name": "",
          "type": "bool"
        }
      ],
      "stateMutability": "nonpayable",
      "type": "function"
    },
    {
      "inputs": [
        {
          "internalType": "address",
          "name": "from",
          "type": "address"
        },
        {
          "internalType": "address",
          "name": "to",
          "type": "address"
        },
        {
          "internalType": "uint256",
          "name": "amount",
          "type": "uint256"
        }
      ],
      "name": "transferFrom",
      "outputs": [
        {
          "internalType": "bool",
          "name": "",
          "type": "bool"
        }
      ],
      "stateMutability": "nonpayable",
      "type": "function"
    }
  ],
  "bytecode": "0x6101406040523480156200001257600080fd5b506040518060400160405280600881526020017f546f6b656e566c64000000000000000000000000000000000000000000000000815250806040518060400160405280600181526020017f31000000000000000000000000000000000000000000000000000000000000008152506040518060400160405280600881526020017f546f6b656e566c640000000000000000000000000000000000000000000000008152506040518060400160405280600581526020017f544b564c440000000000000000000000000000000000000000000000000000008152508160039081620000fd919062000614565b5080600490816200010f919062000614565b50505060008280519060200120905060008280519060200120905060007f8b73c3c69bb8fe3d512ecc4cf759cc79239f7b179b0ffacaa9a75d522b39400f90508260e081815250508161010081815250504660a081815250506200017b818484620001e760201b60201c565b608081815250503073ffffffffffffffffffffffffffffffffffffffff1660c08173ffffffffffffffffffffffffffffffffffffffff1681525050806101208181525050505050505050620001e13369d3c21bcecceda10000006200022360201b60201c565b620008d3565b60008383834630604051602001620002049594939291906200076c565b6040516020818303038152906040528051906020012090509392505050565b600073ffffffffffffffffffffffffffffffffffffffff168273ffffffffffffffffffffffffffffffffffffffff160362000295576040517f08c379a00000000000000000000000000000000000000000000000000000000081526004016200028c906200082a565b60405180910390fd5b620002a9600083836200039060201b60201c565b8060026000828254620002bd91906200087b565b92505081905550806000808473ffffffffffffffffffffffffffffffffffffffff1673ffffffffffffffffffffffffffffffffffffffff168152602001908152602001600020600082825401925050819055508173ffffffffffffffffffffffffffffffffffffffff16600073ffffffffffffffffffffffffffffffffffffffff167fddf252ad1be2c89b69c2b068fc378daa952ba7f163c4a11628f55a4df523b3ef83604051620003709190620008b6565b60405180910390a36200038c600083836200039560201b60201c565b5050565b505050565b505050565b600081519050919050565b7f4e487b7100000000000000000000000000000000000000000000000000000000600052604160045260246000fd5b7f4e487b7100000000000000000000000000000000000000000000000000000000600052602260045260246000fd5b600060028204905060018216806200041c57607f821691505b602082108103620004325762000431620003d4565b5b50919050565b60008190508160005260206000209050919050565b60006020601f8301049050919050565b600082821b905092915050565b6000600883026200049c7fffffffffffffffffffffffffffffffffffffffffffffffffffffffffffffffff826200045d565b620004a886836200045d565b95508019841693508086168417925050509392505050565b6000819050919050565b6000819050919050565b6000620004f5620004ef620004e984620004c0565b620004ca565b620004c0565b9050919050565b6000819050919050565b6200051183620004d4565b620005296200052082620004fc565b8484546200046a565b825550505050565b600090565b6200054062000531565b6200054d81848462000506565b505050565b5b8181101562000575576200056960008262000536565b60018101905062000553565b5050565b601f821115620005c4576200058e8162000438565b62000599846200044d565b81016020851015620005a9578190505b620005c1620005b8856200044d565b83018262000552565b50505b505050565b600082821c905092915050565b6000620005e960001984600802620005c9565b1980831691505092915050565b6000620006048383620005d6565b9150826002028217905092915050565b6200061f826200039a565b67ffffffffffffffff8111156200063b576200063a620003a5565b5b62000647825462000403565b6200065482828562000579565b600060209050601f8311600181146200068c576000841562000677578287015190505b620006838582620005f6565b865550620006f3565b601f1984166200069c8662000438565b60005b82811015620006c6578489015182556001820191506020850194506020810190506200069f565b86831015620006e65784890151620006e2601f891682620005d6565b8355505b6001600288020188555050505b505050505050565b6000819050919050565b6200071081620006fb565b82525050565b6200072181620004c0565b82525050565b600073ffffffffffffffffffffffffffffffffffffffff82169050919050565b6000620007548262000727565b9050919050565b620007668162000747565b82525050565b600060a08201905062000783600083018862000705565b62000792602083018762000705565b620007a1604083018662000705565b620007b0606083018562000716565b620007bf60808301846200075b565b9695505050505050565b600082825260208201905092915050565b7f45524332303a206d696e7420746f20746865207a65726f206164647265737300600082015250565b600062000812601f83620007c9565b91506200081f82620007da565b602082019050919050565b60006020820190508181036000830152620008458162000803565b9050919050565b7f4e487b7100000000000000000000000000000000000000000000000000000000600052601160045260246000fd5b60006200088882620004c0565b91506200089583620004c0565b9250828201905080821115620008b057620008af6200084c565b5b92915050565b6000602082019050620008cd600083018462000716565b92915050565b60805160a05160c05160e0516101005161012051611e67620009236000396000610d6c01526000610dae01526000610d8d01526000610cc201526000610d1801526000610d410152611e676000f3fe608060405234801561001057600080fd5b50600436106100ea5760003560e01c806370a082311161008c578063a457c2d711610066578063a457c2d714610275578063a9059cbb146102a5578063d505accf146102d5578063dd62ed3e146102f1576100ea565b806370a08231146101f75780637ecebe001461022757806395d89b4114610257576100ea565b806323b872dd116100c857806323b872dd1461015b578063313ce5671461018b5780633644e515146101a957806339509351146101c7576100ea565b806306fdde03146100ef578063095ea7b31461010d57806318160ddd1461013d575b600080fd5b6100f7610321565b60405161010491906111ee565b60405180910390f35b610127600480360381019061012291906112a9565b6103b3565b6040516101349190611304565b60405180910390f35b6101456103d6565b604051610152919061132e565b60405180910390f35b61017560048036038101906101709190611349565b6103e0565b6040516101829190611304565b60405180910390f35b61019361040f565b6040516101a091906113b8565b60405180910390f35b6101b1610418565b6040516101be91906113ec565b60405180910390f35b6101e160048036038101906101dc91906112a9565b610427565b6040516101ee9190611304565b60405180910390f35b610211600480360381019061020c9190611407565b61045e565b60405161021e919061132e565b60405180910390f35b610241600480360381019061023c9190611407565b6104a6565b60405161024e919061132e565b60405180910390f35b61025f6104f6565b60405161026c91906111ee565b60405180910390f35b61028f600480360381019061028a91906112a9565b610588565b60405161029c9190611304565b60405180910390f35b6102bf60048036038101906102ba91906112a9565b6105ff565b6040516102cc9190611304565b60405180910390f35b6102ef60048036038101906102ea919061148c565b610622565b005b61030b6004803603810190610306919061152e565b610764565b604051610318919061132e565b60405180910390f35b6060600380546103309061159d565b80601f016020809104026020016040519081016040528092919081815260200182805461035c9061159d565b80156103a95780601f1061037e576101008083540402835291602001916103a9565b820191906000526020600020905b81548152906001019060200180831161038c57829003601f168201915b5050505050905090565b6000806103be6107eb565b90506103cb8185856107f3565b600191505092915050565b6000600254905090565b6000806103eb6107eb565b90506103f88582856109bc565b610403858585610a48565b60019150509392505050565b60006012905090565b6000610422610cbe565b905090565b6000806104326107eb565b90506104538185856104448589610764565b61044e91906115fd565b6107f3565b600191505092915050565b60008060008373ffffffffffffffffffffffffffffffffffffffff1673ffffffffffffffffffffffffffffffffffffffff168152602001908152602001600020549050919050565b60006104ef600560008473ffffffffffffffffffffffffffffffffffffffff1673ffffffffffffffffffffffffffffffffffffffff168152602001908152602001600020610dd8565b9050919050565b6060600480546105059061159d565b80601f01602080910402602001604051908101604052809291908181526020018280546105319061159d565b801561057e5780601f106105535761010080835404028352916020019161057e565b820191906000526020600020905b81548152906001019060200180831161056157829003601f168201915b5050505050905090565b6000806105936107eb565b905060006105a18286610764565b9050838110156105e6576040517f08c379a00000000000000000000000000000000000000000000000000000000081526004016105dd906116a3565b60405180910390fd5b6105f382868684036107f3565b60019250505092915050565b60008061060a6107eb565b9050610617818585610a48565b600191505092915050565b83421115610665576040517f08c379a000000000000000000000000000000000000000000000000000000000815260040161065c9061170f565b60405180910390fd5b60007f6e71edae12b1b97f4d1f60370fef10105fa2faae0126114a169c64845d6126c98888886106948c610de6565b896040516020016106aa9695949392919061173e565b60405160208183030381529060405280519060200120905060006106cd82610e44565b905060006106dd82878787610e5e565b90508973ffffffffffffffffffffffffffffffffffffffff168173ffffffffffffffffffffffffffffffffffffffff161461074d576040517f08c379a0000000000000000000000000000000000000000000000000000000008152600401610744906117eb565b60405180910390fd5b6107588a8a8a6107f3565b50505050505050505050565b6000600160008473ffffffffffffffffffffffffffffffffffffffff1673ffffffffffffffffffffffffffffffffffffffff16815260200190815260200160002060008373ffffffffffffffffffffffffffffffffffffffff1673ffffffffffffffffffffffffffffffffffffffff16815260200190815260200160002054905092915050565b600033905090565b600073ffffffffffffffffffffffffffffffffffffffff168373ffffffffffffffffffffffffffffffffffffffff1603610862576040517f08c379a00000000000000000000000000000000000000000000000000000000081526004016108599061187d565b60405180910390fd5b600073ffffffffffffffffffffffffffffffffffffffff168273ffffffffffffffffffffffffffffffffffffffff16036108d1576040517f08c379a00000000000000000000000000000000000000000000000000000000081526004016108c89061190f565b60405180910390fd5b80600160008573ffffffffffffffffffffffffffffffffffffffff1673ffffffffffffffffffffffffffffffffffffffff16815260200190815260200160002060008473ffffffffffffffffffffffffffffffffffffffff1673ffffffffffffffffffffffffffffffffffffffff168152602001908152602001600020819055508173ffffffffffffffffffffffffffffffffffffffff168373ffffffffffffffffffffffffffffffffffffffff167f8c5be1e5ebec7d5bd14f71427d1e84f3dd0314c0f7b2291e5b200ac8c7c3b925836040516109af919061132e565b60405180910390a3505050565b60006109c88484610764565b90507fffffffffffffffffffffffffffffffffffffffffffffffffffffffffffffffff8114610a425781811015610a34576040517f08c379a0000000000000000000000000000000000000000000000000000000008152600401610a2b9061197b565b60405180910390fd5b610a4184848484036107f3565b5b50505050565b600073ffffffffffffffffffffffffffffffffffffffff168373ffffffffffffffffffffffffffffffffffffffff1603610ab7576040517f08c379a0000000000000000000000000000000000000000000000000000000008152600401610aae90611a0d565b60405180910390fd5b600073ffffffffffffffffffffffffffffffffffffffff168273ffffffffffffffffffffffffffffffffffffffff1603610b26576040517f08c379a0000000000000000000000000000000000000000000000000000000008152600401610b1d90611a9f565b60405180910390fd5b610b31838383610e89565b60008060008573ffffffffffffffffffffffffffffffffffffffff1673ffffffffffffffffffffffffffffffffffffffff16815260200190815260200160002054905081811015610bb7576040517f08c379a0000000000000000000000000000000000000000000000000000000008152600401610bae90611b31565b60405180910390fd5b8181036000808673ffffffffffffffffffffffffffffffffffffffff1673ffffffffffffffffffffffffffffffffffffffff16815260200190815260200160002081905550816000808573ffffffffffffffffffffffffffffffffffffffff1673ffffffffffffffffffffffffffffffffffffffff168152602001908152602001600020600082825401925050819055508273ffffffffffffffffffffffffffffffffffffffff168473ffffffffffffffffffffffffffffffffffffffff167fddf252ad1be2c89b69c2b068fc378daa952ba7f163c4a11628f55a4df523b3ef84604051610ca5919061132e565b60405180910390a3610cb8848484610e8e565b50505050565b60007f000000000000000000000000000000000000000000000000000000000000000073ffffffffffffffffffffffffffffffffffffffff163073ffffffffffffffffffffffffffffffffffffffff16148015610d3a57507f000000000000000000000000000000000000000000000000000000000000000046145b15610d67577f00000000000000000000000000000000000000000000000000000000000000009050610dd5565b610dd27f00000000000000000000000000000000000000000000000000000000000000007f00000000000000000000000000000000000000000000000000000000000000007f0000000000000000000000000000000000000000000000000000000000000000610e93565b90505b90565b600081600001549050919050565b600080600560008473ffffffffffffffffffffffffffffffffffffffff1673ffffffffffffffffffffffffffffffffffffffff1681526020019081526020016000209050610e3381610dd8565b9150610e3e81610ecd565b50919050565b6000610e57610e51610cbe565b83610ee3565b9050919050565b6000806000610e6f87878787610f16565b91509150610e7c81610ff8565b8192505050949350505050565b505050565b505050565b60008383834630604051602001610eae959493929190611b51565b6040516020818303038152906040528051906020012090509392505050565b6001816000016000828254019250508190555050565b60008282604051602001610ef8929190611c1c565b60405160208183030381529060405280519060200120905092915050565b6000807f7fffffffffffffffffffffffffffffff5d576e7357a4501ddfe92f46681b20a08360001c1115610f51576000600391509150610fef565b600060018787878760405160008152602001604052604051610f769493929190611c53565b6020604051602081039080840390855afa158015610f98573d6000803e3d6000fd5b505050602060405103519050600073ffffffffffffffffffffffffffffffffffffffff168173ffffffffffffffffffffffffffffffffffffffff1603610fe657600060019250925050610fef565b80600092509250505b94509492505050565b6000600481111561100c5761100b611c98565b5b81600481111561101f5761101e611c98565b5b031561115b576001600481111561103957611038611c98565b5b81600481111561104c5761104b611c98565b5b0361108c576040517f08c379a000000000000000000000000000000000000000000000000000000000815260040161108390611d13565b60405180910390fd5b600260048111156110a05761109f611c98565b5b8160048111156110b3576110b2611c98565b5b036110f3576040517f08c379a00000000000000000000000000000000000000000000000000000000081526004016110ea90611d7f565b60405180910390fd5b6003600481111561110757611106611c98565b5b81600481111561111a57611119611c98565b5b0361115a576040517f08c379a000000000000000000000000000000000000000000000000000000000815260040161115190611e11565b60405180910390fd5b5b50565b600081519050919050565b600082825260208201905092915050565b60005b8381101561119857808201518184015260208101905061117d565b60008484015250505050565b6000601f19601f8301169050919050565b60006111c08261115e565b6111ca8185611169565b93506111da81856020860161117a565b6111e3816111a4565b840191505092915050565b6000602082019050818103600083015261120881846111b5565b905092915050565b600080fd5b600073ffffffffffffffffffffffffffffffffffffffff82169050919050565b600061124082611215565b9050919050565b61125081611235565b811461125b57600080fd5b50565b60008135905061126d81611247565b92915050565b6000819050919050565b61128681611273565b811461129157600080fd5b50565b6000813590506112a38161127d565b92915050565b600080604083850312156112c0576112bf611210565b5b60006112ce8582860161125e565b92505060206112df85828601611294565b9150509250929050565b60008115159050919050565b6112fe816112e9565b82525050565b600060208201905061131960008301846112f5565b92915050565b61132881611273565b82525050565b6000602082019050611343600083018461131f565b92915050565b60008060006060848603121561136257611361611210565b5b60006113708682870161125e565b93505060206113818682870161125e565b925050604061139286828701611294565b9150509250925092565b600060ff82169050919050565b6113b28161139c565b82525050565b60006020820190506113cd60008301846113a9565b92915050565b6000819050919050565b6113e6816113d3565b82525050565b600060208201905061140160008301846113dd565b92915050565b60006020828403121561141d5761141c611210565b5b600061142b8482850161125e565b91505092915050565b61143d8161139c565b811461144857600080fd5b50565b60008135905061145a81611434565b92915050565b611469816113d3565b811461147457600080fd5b50565b60008135905061148681611460565b92915050565b600080600080600080600060e0888a0312156114ab576114aa611210565b5b60006114b98a828b0161125e565b97505060206114ca8a828b0161125e565b96505060406114db8a828b01611294565b95505060606114ec8a828b01611294565b94505060806114fd8a828b0161144b565b93505060a061150e8a828b01611477565b92505060c061151f8a828b01611477565b91505092959891949750929550565b6000806040838503121561154557611544611210565b5b60006115538582860161125e565b92505060206115648582860161125e565b9150509250929050565b7f4e487b7100000000000000000000000000000000000000000000000000000000600052602260045260246000fd5b600060028204905060018216806115b557607f821691505b6020821081036115c8576115c761156e565b5b50919050565b7f4e487b7100000000000000000000000000000000000000000000000000000000600052601160045260246000fd5b600061160882611273565b915061161383611273565b925082820190508082111561162b5761162a6115ce565b5b92915050565b7f45524332303a2064656372656173656420616c6c6f77616e63652062656c6f7760008201527f207a65726f000000000000000000000000000000000000000000000000000000602082015250565b600061168d602583611169565b915061169882611631565b604082019050919050565b600060208201905081810360008301526116bc81611680565b9050919050565b7f45524332305065726d69743a206578706972656420646561646c696e65000000600082015250565b60006116f9601d83611169565b9150611704826116c3565b602082019050919050565b60006020820190508181036000830152611728816116ec565b9050919050565b61173881611235565b82525050565b600060c08201905061175360008301896113dd565b611760602083018861172f565b61176d604083018761172f565b61177a606083018661131f565b611787608083018561131f565b61179460a083018461131f565b979650505050505050565b7f45524332305065726d69743a20696e76616c6964207369676e61747572650000600082015250565b60006117d5601e83611169565b91506117e08261179f565b602082019050919050565b60006020820190508181036000830152611804816117c8565b9050919050565b7f45524332303a20617070726f76652066726f6d20746865207a65726f2061646460008201527f7265737300000000000000000000000000000000000000000000000000000000602082015250565b6000611867602483611169565b91506118728261180b565b604082019050919050565b600060208201905081810360008301526118968161185a565b9050919050565b7f45524332303a20617070726f766520746f20746865207a65726f20616464726560008201527f7373000000000000000000000000000000000000000000000000000000000000602082015250565b60006118f9602283611169565b91506119048261189d565b604082019050919050565b60006020820190508181036000830152611928816118ec565b9050919050565b7f45524332303a20696e73756666696369656e7420616c6c6f77616e6365000000600082015250565b6000611965601d83611169565b91506119708261192f565b602082019050919050565b6000602082019050818103600083015261199481611958565b9050919050565b7f45524332303a207472616e736665722066726f6d20746865207a65726f20616460008201527f6472657373000000000000000000000000000000000000000000000000000000602082015250565b60006119f7602583611169565b9150611a028261199b565b604082019050919050565b60006020820190508181036000830152611a26816119ea565b9050919050565b7f45524332303a207472616e7366657220746f20746865207a65726f206164647260008201527f6573730000000000000000000000000000000000000000000000000000000000602082015250565b6000611a89602383611169565b9150611a9482611a2d565b604082019050919050565b60006020820190508181036000830152611ab881611a7c565b9050919050565b7f45524332303a207472616e7366657220616d6f756e742065786365656473206260008201527f616c616e63650000000000000000000000000000000000000000000000000000602082015250565b6000611b1b602683611169565b9150611b2682611abf565b604082019050919050565b60006020820190508181036000830152611b4a81611b0e565b9050919050565b600060a082019050611b6660008301886113dd565b611b7360208301876113dd565b611b8060408301866113dd565b611b8d606083018561131f565b611b9a608083018461172f565b9695505050505050565b600081905092915050565b7f1901000000000000000000000000000000000000000000000000000000000000600082015250565b6000611be5600283611ba4565b9150611bf082611baf565b600282019050919050565b6000819050919050565b611c16611c11826113d3565b611bfb565b82525050565b6000611c2782611bd8565b9150611c338285611c05565b602082019150611c438284611c05565b6020820191508190509392505050565b6000608082019050611c6860008301876113dd565b611c7560208301866113a9565b611c8260408301856113dd565b611c8f60608301846113dd565b95945050505050565b7f4e487b7100000000000000000000000000000000000000000000000000000000600052602160045260246000fd5b7f45434453413a20696e76616c6964207369676e61747572650000000000000000600082015250565b6000611cfd601883611169565b9150611d0882611cc7565b602082019050919050565b60006020820190508181036000830152611d2c81611cf0565b9050919050565b7f45434453413a20696e76616c6964207369676e6174757265206c656e67746800600082015250565b6000611d69601f83611169565b9150611d7482611d33565b602082019050919050565b60006020820190508181036000830152611d9881611d5c565b9050919050565b7f45434453413a20696e76616c6964207369676e6174757265202773272076616c60008201527f7565000000000000000000000000000000000000000000000000000000000000602082015250565b6000611dfb602283611169565b9150611e0682611d9f565b604082019050919050565b60006020820190508181036000830152611e2a81611dee565b905091905056fea264697066735822122085fa08158843a5d66581d61ccdec3965fcb78f52e515d7f2fb86c80da6b95d1564736f6c63430008110033",
  "immutableReferences": {
    "1535": [
      {
        "length": 32,
        "start": 3393
      }
    ],
    "1537": [
      {
        "length": 32,
        "start": 3352
      }
    ],
    "1539": [
      {
        "length": 32,
        "start": 3266
      }
    ],
    "1541": [
      {
        "length": 32,
        "start": 3469
      }
    ],
    "1543": [
      {
        "length": 32,
        "start": 3502
      }
    ],
    "1545": [
      {
        "length": 32,
        "start": 3436
      }
    ]
  },
  "source": "// SPDX-License-Identifier: MIT\npragma solidity >=0.4.22 <0.9.0;\n\n/// @title A contract that implements ERC-2612 permit\n/// @author GregCrn\n/// @notice You can use this contract for implementing permit\n/// @dev More info at https://eips.ethereum.org/EIPS/eip-2612\n\nimport \"@openzeppelin/contracts/token/ERC20/ERC20.sol\";\nimport \"@openzeppelin/contracts/token/ERC20/extensions/draft-ERC20Permit.sol\";\n\ncontract VldPermit is ERC20, ERC20Permit {\n    constructor() ERC20(\"TokenVld\", \"TKVLD\") ERC20Permit(\"TokenVld\") {\n        _mint(msg.sender, 1000000000000000000000000); // mint 1,000,000 tokens to contract deployer\n    }\n}\n",
  "sourcePath": "/Users/gregorycorin/Desktop/Vetri_dev/VLDTokenPermit/contracts/VldPermit.sol",
  "compiler": {
    "name": "solc",
    "version": "0.8.17+commit.8df45f5f.Emscripten.clang"
  },
  "schemaVersion": "3.4.10",
  "updatedAt": "2023-02-25T15:02:28.864Z",
  "networkType": "ethereum",
  "devdoc": {
    "kind": "dev",
    "methods": {
      "DOMAIN_SEPARATOR()": {
        "details": "See {IERC20Permit-DOMAIN_SEPARATOR}."
      },
      "allowance(address,address)": {
        "details": "See {IERC20-allowance}."
      },
      "approve(address,uint256)": {
        "details": "See {IERC20-approve}. NOTE: If `amount` is the maximum `uint256`, the allowance is not updated on `transferFrom`. This is semantically equivalent to an infinite approval. Requirements: - `spender` cannot be the zero address."
      },
      "balanceOf(address)": {
        "details": "See {IERC20-balanceOf}."
      },
      "decimals()": {
        "details": "Returns the number of decimals used to get its user representation. For example, if `decimals` equals `2`, a balance of `505` tokens should be displayed to a user as `5.05` (`505 / 10 ** 2`). Tokens usually opt for a value of 18, imitating the relationship between Ether and Wei. This is the value {ERC20} uses, unless this function is overridden; NOTE: This information is only used for _display_ purposes: it in no way affects any of the arithmetic of the contract, including {IERC20-balanceOf} and {IERC20-transfer}."
      },
      "decreaseAllowance(address,uint256)": {
        "details": "Atomically decreases the allowance granted to `spender` by the caller. This is an alternative to {approve} that can be used as a mitigation for problems described in {IERC20-approve}. Emits an {Approval} event indicating the updated allowance. Requirements: - `spender` cannot be the zero address. - `spender` must have allowance for the caller of at least `subtractedValue`."
      },
      "increaseAllowance(address,uint256)": {
        "details": "Atomically increases the allowance granted to `spender` by the caller. This is an alternative to {approve} that can be used as a mitigation for problems described in {IERC20-approve}. Emits an {Approval} event indicating the updated allowance. Requirements: - `spender` cannot be the zero address."
      },
      "name()": {
        "details": "Returns the name of the token."
      },
      "nonces(address)": {
        "details": "See {IERC20Permit-nonces}."
      },
      "permit(address,address,uint256,uint256,uint8,bytes32,bytes32)": {
        "details": "See {IERC20Permit-permit}."
      },
      "symbol()": {
        "details": "Returns the symbol of the token, usually a shorter version of the name."
      },
      "totalSupply()": {
        "details": "See {IERC20-totalSupply}."
      },
      "transfer(address,uint256)": {
        "details": "See {IERC20-transfer}. Requirements: - `to` cannot be the zero address. - the caller must have a balance of at least `amount`."
      },
      "transferFrom(address,address,uint256)": {
        "details": "See {IERC20-transferFrom}. Emits an {Approval} event indicating the updated allowance. This is not required by the EIP. See the note at the beginning of {ERC20}. NOTE: Does not update the allowance if the current allowance is the maximum `uint256`. Requirements: - `from` and `to` cannot be the zero address. - `from` must have a balance of at least `amount`. - the caller must have allowance for ``from``'s tokens of at least `amount`."
      }
    },
    "version": 1
  },
  "userdoc": {
    "kind": "user",
    "methods": {},
    "version": 1
  }
}